:020000040000fa
:080000000001040000000000f3
:020000040000fa
:0400080042030000af
:020000040000fa
:04000c0042030000ab
:020000040000fa
:0400100042030000a7
:020000040000fa
:0400140042030000a3
:020000040000fa
:04001800420300009f
:020000040000fa
:04001c00420300009b
:020000040000fa
:040020004203000097
:020000040000fa
:040024004203000093
:020000040000fa
:04002800420300008f
:020000040000fa
:04002c00420300008b
:020000040000fa
:040030004203000087
:020000040000fa
:040034008202000044
:020000040000fa
:04003800420300007f
:020000040000fa
:04003c00420300007b
:020000040000fa
:040040004203000077
:020000040000fa
:04004400c8010000ef
:020000040000fa
:04004800420300006f
:020000040000fa
:04004c00f8010000b7
:020000040000fa
:040050004203000067
:020000040000fa
:040054004203000063
:020000040000fa
:04005800420300005f
:020000040000fa
:04005c00420300005b
:020000040000fa
:040060004203000057
:020000040000fa
:040064004203000053
:020000040000fa
:04006800420300004f
:020000040000fa
:04006c00420300004b
:020000040000fa
:040070004203000047
:020000040000fa
:040074004203000043
:020000040000fa
:04007800420300003f
:020000040000fa
:04007c00420300003b
:020000040000fa
:04008000e202000098
:020000040000fa
:040084004203000033
:020000040000fa
:04008800420300002f
:020000040000fa
:04008c00420300002b
:020000040000fa
:040090004203000027
:020000040000fa
:040094004203000023
:020000040000fa
:04009800420300001f
:020000040000fa
:04009c00420300001b
:020000040000fa
:0400a0004203000017
:020000040000fa
:0400a4004203000013
:020000040000fa
:0400a800420300000f
:020000040000fa
:0400ac00420300000b
:020000040000fa
:0400b0004203000007
:020000040000fa
:0400b4004203000003
:020000040000fa
:0400b80042030000ff
:020000040000fa
:0400bc0042030000fb
:020000040000fa
:0400c00042030000f7
:020000040000fa
:0400c40042030000f3
:020000040000fa
:0400c80042030000ef
:020000040000fa
:0400cc0042030000eb
:020000040000fa
:0400d00042030000e7
:020000040000fa
:0400d40042030000e3
:020000040000fa
:0400d80042030000df
:020000040000fa
:0401080042030000ae
:020000040000fa
:04010c0042030000aa
:020000040000fa
:0401100042030000a6
:020000040000fa
:0401140042030000a2
:020000040000fa
:04011800420300009e
:020000040000fa
:04011c00420300009a
:020000040000fa
:040120004203000096
:020000040000fa
:040124004203000092
:020000040000fa
:04012800420300008e
:020000040000fa
:04012c00420300008a
:020000040000fa
:040130004203000086
:020000040000fa
:040134004203000082
:020000040000fa
:04013800420300007e
:020000040000fa
:04013c00420300007a
:020000040000fa
:040140004203000076
:020000040000fa
:040144004203000072
:020000040000fa
:04014800420300006e
:020000040000fa
:04014c00420300006a
:020000040000fa
:040150004203000066
:020000040000fa
:040154004203000062
:020000040000fa
:04015800420300005e
:020000040000fa
:04015c00420300005a
:020000040000fa
:040160004203000056
:020000040000fa
:040164004203000052
:020000040000fa
:04016800420300004e
:020000040000fa
:04016c00420300004a
:020000040000fa
:040170004203000046
:020000040000fa
:040174004203000042
:020000040000fa
:04017800420300003e
:020000040000fa
:04017c00420300003a
:020000040000fa
:040180004203000036
:020000040000fa
:040184004203000032
:020000040000fa
:04018800420300002e
:020000040000fa
:04018c00420300002a
:020000040000fa
:040190004203000026
:020000040000fa
:040194004203000022
:020000040000fa
:04019800420300001e
:020000040000fa
:04019c00420300001a
:020000040000fa
:0401a0004203000016
:020000040000fa
:0401a4004203000012
:020000040000fa
:0401a800420300000e
:020000040000fa
:0401ac00420300000a
:020000040000fa
:0401b0004203000006
:020000040000fa
:0401b4004203000002
:020000040000fa
:0401b80042030000fe
:020000040000fa
:0401bc0042030000fa
:020000040000fa
:0401c00042030000f6
:020000040000fa
:0401c40042030000f2
:020000040000fa
:0401c80042030000ee
:020000040000fa
:0401cc0042030000ea
:020000040000fa
:0401d00042030000e6
:020000040000fa
:0401d40042030000e2
:020000040000fa
:0401d80042030000de
:020000040000fa
:100200008f8520000eff20000e01880000000000f6
:10021000000020000000e000020032000001200089
:100220002002880014000700320107000000e000ef
:1002300003003a00801c2200010020000200370069
:100240000000200001002000810f7000010032003a
:1002500014000700000020000000e000020032004f
:1002600000000200000000006e1502000000000007
:100270000040da000000fe004440a90040142000c5
:100280000000e0000300320000002000a001880010
:100290004440a800000006008a1f78008b1f7800e9
:1002a0000000060091018800800478000000eb0047
:1002b0001a003700e284440032a0b4009905ba0065
:1002c000e284440032a0b4009906ba00e2844400fb
:1002d00032a0b4000006eb00476fde00fd07b2005d
:1002e000636ce10003003a00ebff07000000eb0045
:1002f0000a003700606ce10004003a00005deb008a
:100300008b05e900fdff3e00040037006168e10055
:10031000010032000086eb000b00070019c7ba008d
:100320001905ba000e04e00003003a000a00e000dc
:10033000e0ff3a0000000600fe07b2009e018800c0
:100340008a047800f5ff3700395dba008b05e900b3
:100350000c003200295dba008b05e900080032006c
:100360000c00e00003003a00e284440032a0b40034
:10037000f5ff370019ddba008b05e900faff3a00f6
:100380008904e800e184440032a0b40000000600c3
:10039000809fbe003400f80000002000a00188000b
:1003a0000000fa000a21ef00e04080000000e800b1
:1003b000e0408800f04080000000e800f040880045
:1003c000e1408000803e2000808f500003003a0012
:1003d0001c28ef00100020000041880084e0a900e4
:1003e0000080fa003400f9004f00be000040060013
:1003f000809fbe00821f78003400f80000002000bb
:10040000a00188000000fa009010800000407800f1
:1004100000e8b700c240800000c8bf0080407800fc
:10042000308020000000410001487800c140800079
:10043000308020000080400090407800f0c2b3007f
:1004400080cf500025003a00c04080008000e900c5
:10045000308020000080400090407800f0c2b3005f
:1004600080cf50001d003a00c14080003080200045
:10047000008040008040eb0001487800c0408000d0
:100480008000e90030802000008040008040eb00c8
:1004900001487800c0408000d04088000800370044
:1004a000c140800030802000008040008040eb0090
:1004b00001487800d04080000000e800d04088006b
:1004c000d0408000f30f5000f5ff360010c0b3009d
:1004d00001e8b7001828ef0004003700c040800092
:1004e0000000e800c04088000168ef008520a900f6
:1004f0000080fa003400f9004f0178004f00be0080
:1005000000400600809fbe00829fbe00849fbe0008
:10051000869fbe003400f80000002000a001880083
:100520000000fa0032c8bf00e14f50000d003a0051
:10053000408320003002be002003be0010002000d7
:10054000010020006011b8000000420081804a00d4
:1005500002014b0083814b0044832000009abe00bf
:100560000292be0032c8bf000004e0000d003a0055
:1005700005e1a900ca22a9000021ef0000a62e0073
:100580001008880010c0b30032e8b7000000000077
:1005900040168000640060000000e000fcff3200b4
:1005a00005e1a8008460a9000080fa003400f90089
:1005b0004f03be004f02be004f01be004f00be0001
:1005c00000400600809fbe00829fbe00849fbe0048
:1005d000869fbe003400f80000002000a0018800c3
:1005e0000000fa003cc8bf00e14f50000d003a0087
:1005f000e08320003002be002003be001000200077
:10060000010020006011b8000000420081804a0013
:1006100002014b0083814b00e4832000009abe005e
:100620000292be003cc8bf000004e0000d003a008a
:1006300021e1a900d622a9001821ef0000a62e0072
:10064000e008880010c0b3003ce8b70000000000dc
:10065000a0168000640060000000e000fcff320093
:1006600021e1a80086c0a9000080fa003400f9004a
:100670004f03be004f02be004f01be004f00be0040
:10068000004006000040da000000fe008d00a900d6
:1006900021e2a9008500a9000000060000118000e9
:1006a0006140600000000600101188000111880000
:1006b000000006000080eb002002ab0007003200c3
:1006c00020c2a9002342ab000200320020118000aa
:1006d0000000060020118000f00fb20000000600ac
:1006e0002342ab0001003a00f00fb2002011880055
:1006f000000006000000050003f0a200889fbe0075
:100700008a9fbe008c1f7800220107002901330058
:100710006450e1004f0032006420e10052003200da
:1007200003826c0007003b000905d0000306d000df
:10073000820f54000c065d000200390002003200f6
:1007400089017800030678008582550004003d0089
:100750000003fd008103fd008502ea008b85420055
:10076000840f720002003b0060001000e08018005f
:100770006011b8000005eb007a28e1000a0039009a
:1007800006007800c75ddd00f707b20087807500be
:100790002d003700828171000a0178006105600038
:1007a0008180d1000080d3008502e900f9ff3b0081
:1007b000060440008784480002003b0060041400e7
:1007c000e0841c000988a300070032008a817100c0
:1007d00082817100610164008904d1000884d30022
:1007e0008b05e800170037000978a30013003a00d2
:1007f0000b00e000130034008b05e90008044400fe
:1008000089844c000a4474000978a3000d003a0062
:100810000b00e000070034008b05e90008044400e9
:1008200089844c0001003a000b0020000978a300e5
:10083000f7ff32000001eb000200370082817100f7
:100840000a017800980007000cf0a70001f0a00052
:10085000e10037006420e10002003a00838f6c0061
:10086000e10033000801be000200be00da003700dc
:10087000889fbe008a9fbe008c1f7800c5000700bd
:10088000cc00330003866c006450e1002e0032007f
:100890006420e100330032006150e1002f0032009b
:1008a0006120e1003100320085855500eb07b00082
:1008b0000900200008042000050037000804440057
:1008c00089844c000a0031000603430087834b00f3
:1008d0000001530081815b00f8ff33000203be007a
:1008e0000800a0000804440089844c00f6ff390089
:1008f000c639dd00830173000100320013002000bf
:100900008904d1000884d3000998a30005003200af
:100910000800a7000300a0008904d1000884d300c8
:100920008b05e8008904d1000884d3000001eb00a6
:100930000281d2005c00070001f0a1000cf0a700ca
:1009400001f0a000a40037006420e100a6003200fe
:100950000801be000200be00f7ff37006120e10081
:10096000a10032006000b800f3ff37000000200053
:1009700001f82700f0ff37000001be0070000700fb
:100980000470a70003f0a10003f8a30013003a00cd
:100990006509b10010003200090035006928e10046
:1009a00002003500010028000000050000004000a2
:1009b000818048008502e900fcff3a000000060043
:1009c000f88f4200050035008100d1000080d3007f
:1009d0008502e800fcff3a00000006008000eb0002
:1009e00000000500889fbe008a9fbe000082700044
:1009f0000402710004827100260032000004be006f
:100a00000200be006011b8006b09200095022000b2
:100a10000182cf000a0039000541b1000082cf00f9
:100a2000070039000541b1000982cf0004003900f8
:100a30000541b1000882cf00010039000541b10035
:100a400005425200120032000a003b008281710010
:100a5000610164008100d1000080d3008984d3004b
:100a60000884d3008b05e8000442e800f7ff3a0051
:100a7000070037000804440089844c000000480047
:100a8000818048008b05e9000442e900f9ff3a0043
:100a9000050007004f05be004f04be000000060021
:100aa0006011b800cfff3700810020006180550041
:100ab0000b003d000b00200061fe2f000100e10053
:100ac0001d00340082817100610164008904d1003d
:100ad0000884d3000000e800faff3a00710020000b
:100ae0006100640003007000020060000900320031
:100af00061044400e0844c000988a5000500320030
:100b00008b05e8006808e10002003a008904d10082
:100b10000884d300f20f20000258e10005003d00d8
:100b2000c75ddd00f907b200898075000800780014
:100b3000000006000bf827008b007800000005007d
:100b4000c70ade00f107b200f50fb200080032005c
:100b5000e1cf4200020032000170a0002400050035
:100b6000810f7000010032000408050044000500f8
:100b7000810f700002003a00140005008502e900b0
:100b80000000400081c04800fcff3b000170a00055
:100b9000240005000004be00e9ff07000003be00ba
:100ba0000405be000200be00e5ff0700844f75008b
:100bb000000006000200be006450e100050036009f
:100bc0006420e100020036000968a30001003a0039
:100bd0000800be000160a0004f0678004f05be006f
:100be0004f04be0000000600f0ff2f00f1ff2700b9
:100bf000f9ff3700889fbe008a9fbe008c1f7800d7
:100c0000e4ff0700ebff330003866c006450e10053
:100c1000240032006420e100270032006150e1002e
:100c2000220032006120e100210032008b85420069
:100c3000eb07b1000134b800003ab80008044200e4
:100c400089844a00013ab8000030b800888040002a
:100c500009014a0004003300000040008180480080
:100c6000020149008b05e900c909dd00830170001c
:100c70000100320013002000c814de004814dd001b
:100c80004709de001200b200c808de0008847000c8
:100c900085ff070001f0a1000cf0a70001f0a00003
:100ca000cdff37006120e100cfff32000801be0018
:100cb0000200be00f7ff37006150e100fcff3a0080
:100cc000c9ff37006022b800060220000000d000f3
:100cd0008180d2000482d2008582d2000000a00070
:100ce0000202520083825a000300310002024200d5
:100cf00083824a000000a1000603e900f3ff3a00e6
:100d000000000600889fbe008a9fbe008c1f7800ee
:100d10000006eb00e00f5000e08f5800e00f590094
:100d2000e08f590007003d006044b8006055b800ee
:100d30000000540081805c0002015d0083815d0041
:100d40001c002000e00f5200e08f5a00e00f5b0013
:100d5000e08f5b0007003d006044b8006055b800bc
:100d60000402540085825c0006035d0087835d00f9
:100d70000c00a2000c0007000c00e000060032008e
:100d80006022b8006033b8000000520081805a0031
:100d900002015b0083815b004f0678004f05be00b7
:100da0004f04be0000000600889fbe008a9fbe0060
:100db0008c9fbe000404b8000506b80089044600f4
:100dc00060854e000606b8000a054600e0854e0024
:100dd0000706b8008b054600040eb80089044600db
:100de0000a854e00e0854d00050eb8000a05460054
:100df0008b854e00060eb8008b0546000416b80021
:100e00000a0546008b854e000516b8008b05460086
:100e1000041eb8008b0546000800be000a01be0093
:100e20004f06be004f05be004f04be000000060086
:020000040000fa
:100e30000102000003040000050600004b610000f1
:100e40006c6900006272000061630000696a000062
:100e500061200000736500006e7a00006f72000070
:100e6000613100003a200000002000002500000051
:100e70002020000020200000202000002020000072
:100e80002020000020200000202000002020000062
:100e90002020000020200000202000002020000052
:100ea000202000002020000020200000204400001e
:100eb0006f6e00006a610000206700007261000030
:100ec0006e690000636100003a200000002000000d
:100ed00020200000202000002020000020470000eb
:100ee0006f6e00006a610000206700007261000000
:100ef0006e690000636100003a200000004b0000b2
:100f0000616c0000696200007261000063690000aa
:100f10006a61000020730000656e00007a6f0000b7
:100f200072610000323a00002000000043410000de
:100f30004e20000049530000204f00004b000000ed
:100f4000434100004e20000049530000204e0000a5
:100f50004f540000204f00004b0000004d65000082
:100f60007373000061670000652000007265000077
:100f700063650000697600006564000021000000e0
:100f80002020000020200000202000002020000061
:100f90002020000020530000656e00007a6f0000e2
:100fa000723100003a20000000200000636d000054
:100fb0000020000020200000202000002020000051
:100fc0002020000020200000536500006e7a000001
:100fd0006f720000323a000020000000446f0000f1
:100fe0006e6a000061000000476f0000726e000032
:100ff0006a61000000700000727600006f670000f8
:101000000064000072750000676f00006700000058
:1010100020670000726100006e69000063610000db
:101020002000000020730000656e00007a6f000051
:1010300072610000206a0000653a00002000000094
:10104000446f00006e6a00006120000067720000bb
:10105000616e000069630000612000006a650000a5
:101060002076000065630000612000006f640000ce
:10107000206700006f7200006e6a000065200000ab
:10108000213f0000213f0000005000006f6e000073
:101090006f7600006f2000006b6100006c6900003b
:1010a0006272000069730000617400006900000052
:0810b000000100000203000032
:020000040000fa
:1010b8000000fa00dec2a900de42a800de62a90034
:1010c800dea2a900e2a2a800d302a8000080fa00cc
:1010d800000006000400fa0030132900000f780011
:1010e800f0fb2d00100798009e0090001e0078006d
:1010f8006bfd07000080fa00000006000200fa00fd
:101108000000eb00000f78000000000000118000d4
:10111800620060000000e000fcff3a000000eb0005
:101128006dfd0700000000005afd07000004e00004
:10113800fdff32005dfd0700000f78001e007800fb
:101148000080fa00000006000400fa00100798006a
:101158000000eb00000f7800000000000011800084
:10116800620060000000e000fcff3a001e009000f2
:1011780059fd07000000000046fd07000004e000dc
:10118800fdff320049fd0700000f78001e007800bf
:101198000080fa00000006000000fa0039fd070090
:1011a8000080fa00000006000600fa0020079800f8
:1011b8000000eb00000f78000b0037000000eb0088
:1011c80010079800030037001e0090000000e80098
:1011d800100798009e0090002e009000808f50000d
:1011e800f9ff35001e0fe8001e007800ef0f5000d1
:1011f800f2ff34000080fa00000006000000fa0048
:10120800b4ff0700101780000050a10010178800d5
:10121800000c2000ccff0700101780000050a00031
:1012280010178800dcff0700a0002000deff070081
:101238000080fa00000006000400fa002047980029
:10124800a4ff0700101780000050a10010178800a5
:1012580030002000bcff07002e4090000080fb00fb
:10126800b9ff0700a5ff0700004f7800101780009e
:101278000050a00010178800c7ff07001e40780024
:101288000080fa00000006000800fa00881f7800b5
:101298002047980021079800624798008dff0700b3
:1012a800101780000050a10010178800300020009f
:1012b800a5ff07002e4090000080fb00a2ff07005a
:1012c8000040eb00004f7800070037001e80fb004d
:1012d800ae0090000084400088ff070000407800be
:1012e800004c78001e4fe8006e4090009e40780049
:1012f80080cf5000f5ff3900101780000050a00083
:1013080010178800a4ff07004f0478000080fa0037
:10131800000006000200fa00004f7800114798000c
:101328006cff0700101780000050a10010178800fc
:101338002000200084ff07001e80fb0082ff0700ba
:101348001e4090000080fb007fff07001017800000
:101358000050a000101788008fff07000080fa00d7
:10136800000006000800fa002047980021079800ae
:101378006247980057ff0700101780000050a1002f
:1013880010178800200020006fff07002e409000f3
:101398000080fb006cff07000040eb00004f780066
:1013a800070037001e80fb00ae0090000080400060
:1013b800104078000080fb0063ff07001e4fe80024
:1013c8006e4090009e40780080cf5000f5ff3900b5
:1013d800101780000050a000101788006eff07004b
:1013e8000080fa00000006000400fa00004f7800b0
:1013f800114798002247980036ff07001017800011
:101408000050a10010178800500020004eff070070
:101418001e80fb004cff07001e4090000080fb0070
:1014280049ff07002e4090000080fb0046ff0700a0
:10143800101780000050a0001017880056ff070002
:101448000080fa00000006000200fa0021ff0700f1
:10145800101780000050a10010178800000a200013
:1014680039ff070025ff0700004f7800101780009c
:101478000050a0001017880047ff07001e407800a2
:101488000080fa00000006000200fa00004f780011
:101498001e417800118520008248780051c8bf009d
:1014a800020007000080fa00000006000400fa00ad
:1014b800204798002e41900001ceb300f0c0b30041
:1014c800c9ff0700f0c0b3005bff0700004f7800ba
:1014d80000ceb3001e4f60002e4090009e40780062
:1014e80080cf500002003a000040eb0001003700b6
:1014f80010c0b3000080fa00000006000600fa00e1
:10150800404798005147980010c0b30030479800f2
:101518005e4090000080fb00e10f50008700320021
:10152800e20f5000030032000000e000fc0032002f
:101538005a0137004e4090000080fb006101b9005d
:101548000080eb008080eb000200400083804800b0
:10155800d200200003002000820f5000838f580023
:1015680071003e00006001000d00370013003700d5
:10157800190037001f003700250037002b003700ff
:1015880031003700370037003d003700430037008f
:10159800490037004f003700550037005b0037001f
:1015a80070cab300004f780060cfb30010479800ae
:1015b80040c8b300204798005f00370030c9b30027
:1015c800004f780060cfb3001047980040c8b300c0
:1015d800204798005800370090c8b300004f7800a3
:1015e80060cfb3001047980040c8b3002047980068
:1015f8005100370070c8b300004f780050ceb300d8
:101608001047980030c8b300204798004a003700b8
:1016180050c8b300004f780060cfb300104798005f
:1016280040c8b300204798004300370040c8b300c3
:10163800004f780060cfb3001047980040c8b3004f
:10164800204798003c00370040c8b300004f78009e
:1016580050ceb3001047980030c8b3002047980018
:101668003500370040c8b300004f780030cdb300d4
:101678001047980010c8b300204798002e00370084
:1016880010c8b300004f780060cfb300104798002f
:1016980040c8b300204798002700370010c8b3009f
:1016a800004f780050ceb3001047980030c8b30000
:1016b800204798002000370000c8b300004f78008a
:1016c80060cfb3001047980040c8b3002047980087
:1016d8001900370000c8b300004f780050ceb3009f
:1016e8001047980030c8b300204798001200370010
:1016f8000040eb00004f780010cdb3001047980071
:1017080010c8b300204798000b0037000040eb00da
:10171800004f780000ccb3001047980000c8b30011
:1017280020479800040037000040eb00304798003d
:1017380010c0b300ec003700dc0037004e409000ca
:101748000080fb006101b9000080eb008080eb00a5
:101758000200400083804800d200200003002000df
:10176800820f5000838f580068003e00006001001f
:101778000d003700130037001900370063003700e9
:101788001e003700240037002a0037002e003700db
:10179800340037003a003700400037004600370071
:1017a8004c00370052003700f0c3b300004f7800f8
:1017b80000c0eb001047980070c8b300204798009d
:1017c8005600370070c6b300004f780060cfb300f2
:1017d8001047980040c8b300204798004f003700d2
:1017e80030c5b300004f780060cfb30010479800b1
:1017f80040c8b3002047980048003700e0c4b30051
:10180800004f780050ceb3001047980030c8b3009e
:10181800204798004100370090c4b300004f78007b
:1018280060cfb3001047980040c8b3002047980025
:101838003a00370060cfb3001047980040c8b300a3
:10184800204798003500370040c4b300004f7800a7
:1018580060cfb3001047980040c8b30020479800f5
:101868002e00370040c4b300004f780050ceb300bc
:101878001047980030c8b300204798002700370069
:1018880030c4b300004f780050ceb3001047980022
:1018980030c8b300204798002000370010c4b300b8
:1018a800004f780060cfb3001047980040c8b300dd
:1018b800204798001900370010c4b300004f780083
:1018c80050ceb3001047980030c8b30020479800a6
:1018d8001200370000c4b300004f780050ceb300a8
:1018e8001047980030c8b300204798000b00370015
:1018f8000040eb00004f7800a0ccb30010479800e0
:1019080010c8b30020479800040037000040eb00df
:101918003047980010c0b3007300370063003700e9
:101928004e4090000080fb00ea0f50003300320068
:10193800ea0f50000c003c00e70f50001a0032007c
:10194800e70f500003003c00e60f50000f00320084
:101958004d003700e80f50001a003200e90f500020
:101968001f00320048003700ec0f500031003200f1
:10197800ec0f500028003500ed0f50003400320005
:10198800ee0f5000390032003f00370080c1b3002d
:10199800004f780030cdb3001047980010c8b3004e
:1019a800204798003c00370090c4b300004f7800ef
:1019b80060cfb3001047980040c8b3002047980094
:1019c8003500370040ccb300004f780000c0eb0072
:1019d8001047980070c8b300204798002e003700c1
:1019e80040c4b300004f780060cfb30010479800a0
:1019f80040c8b300204798002700370040c4b30010
:101a0800004f780050ceb3001047980030c8b3009c
:101a1800204798002000370040c4b300004f7800ea
:101a280030cdb3001047980010c8b3002047980085
:101a38001900370010c4b300004f780060cfb3001e
:101a48001047980040c8b30020479800120037009c
:101a580000c4b300004f780060cfb300104798006f
:101a680040c8b300204798000b0037000040eb0047
:101a7800004f780090cdb3001047980020c8b300fd
:101a880020479800040037000040eb0030479800da
:101a980010c0b30014003700040037000040eb000a
:101aa8003047980010c0b3000f0037003e40900048
:101ab8000004e0000b0032009e407800a0c2b30092
:101ac80014fe07009e40900090c2b30011fe07006c
:101ad800ae40900080c2b3000efe07000040eb004d
:101ae8000100370010c0b3000080fa0000000600b3
:101af8000e00fa000040eb004047980010c0b30009
:101b0800504798006000b8003007980041079800d7
:101b18006000b80050079800610798003e019000e7
:101b2800ce019000de40900000c2b300cf00070055
:101b38003e019000ce019000de40900040c2b3000c
:101b4800ca0007005e019000ee019000de409000a0
:101b58000040eb00c50007005e019000ee01900018
:101b6800ce40900040c0b300c00007005e01900066
:101b7800ee019000de40900080c0b300bb0007007b
:101b88005e019000ee019000ce40900000c1b300cd
:101b9800b60007005e019000ee019000de40900064
:101ba80040c1b300b10007005e019000ee01900053
:101bb800ce40900080c1b300ac00070000c3b30062
:101bc8001047980000c4b3002047980000c5b30030
:101bd800304798000040eb00004f780013003700b2
:101be8008040eb001e409000cafd07008040eb00db
:101bf8002e409000c7fd07008040eb003e4090005b
:101c0800c4fd07001e4090000040e80010479800ff
:101c18002e4090000040e800204798003e40900089
:101c28000040e800304798001e4fe8001e4078004a
:101c3800ed4f5000eaff36008040eb0000c6b300cd
:101c4800b4fd07008040eb0000c7b300b1fd0700fa
:101c58000080fa00000006000600fa0020479800fd
:101c6800314798004247980064fd070000c4b3005c
:101c780051e8b70000c8b3000cfe0700004f780019
:101c88001e4078000004e000020032001e40780088
:101c980037003700ce4090003e40900017fe070006
:101ca8000004e000020032001e40780030003700d7
:101cb8001e4078000004e0002c003a008cff07006a
:101cc80031c0b300b0c2b30092fd0700c1c3b30076
:101cd800c0c0b3008ffd07008040eb00d0c0b30048
:101ce8008cfd07002e4090000080fb000000e00003
:101cf8000b003200e30f500012003a0042c6b30056
:101d080041c6b30000c6b300b7fd070002c6b30062
:101d180001c6b30000c7b300b3fd07000b003700ce
:101d280042c0b30041c6b30000c6b300aefd070011
:101d38000041eb0001c6b30000c7b300aafd0700cd
:101d48000200370010c0b3000900370051c8bf00b7
:101d5800d6fd0700004f78001e4078000004e00020
:101d6800020032001e407800010037001e40780053
:101d78000080fa00000006000c00fa006047980096
:101d8800714798004207980053079800ce009000ca
:101d9800010f78007e409000e14f50001f003a008c
:101da8001e00780000407800504798001e00780018
:101db8004800de0000407800404798004e00900040
:101dc800de0090004008de00000f78001e0078005a
:101dd800004078006340600030479800be409000a3
:101de8001e007800004078007c4160003000200030
:101df8000010dd0000c04000304798003e409000d1
:101e08000034a000304798001e0078004500de002e
:101e180000407800204798000d0037001e00780029
:101e28004300de0000407800204798001e0078003c
:101e380080407800500020000008dd0030479800fe
:101e48000040eb00504798000040eb0040479800e6
:101e58000e80e80042c0b300800078006e40900019
:101e680040fd07000080fa00000006000c00fa00a0
:101e780060479800714798004207980053079800f8
:101e8800ce009000010f78007e409000e14f500096
:101e98001f003a001e007800004078005047980064
:101ea8001e0078004800de00004078004047980097
:101eb8004e009000de0090004008de00000f780021
:101ec8001e007800004078006340600030479800aa
:101ed800be4090001e007800004078007c41600001
:101ee800300020000010dd0000c04000304798009e
:101ef8003e4090000034a000304798001e00780053
:101f08004500de00004078002047980014003700a4
:101f18001e00780000407800504798001e007800a6
:101f28004800de0000407800404798004e009000ce
:101f3800de0090004008de00000f78001e007800e8
:101f480080407800500020000008dd0030479800ed
:101f58001e0078004300de0000407800204798000b
:101f68000e80e80042c0b300800078006e40900008
:101f7800fcfc07000080fa00000006000a00fa00d6
:101f88004047980031079800420798003e009000ab
:101f98008040eb00014878004e0190006000b800d6
:101fa8000089be0042c0b3008e0078004e40900009
:101fb800b5fc07001e4078000080fb00c300dd0070
:101fc8001e4090000080fb004500de0000407800c5
:101fd8000080fb0000804000cf80de004e019000b2
:101fe8000089be001e4090000080fb006800600071
:101ff8000000e000390032004e0090001000be00e2
:10200800420add00ce02de00850272004202dd00d7
:102018001e4090000081fb008001eb003000200092
:102028000100200002037800030178008001780095
:102038000100780003036300000061008000eb00ea
:10204800c000dd00000020000001be006130b800c3
:102058000001710081817100040041008580490000
:102068004e0190000089be004e0090001000be0096
:102078004809dd00c801de00830171004801dd0068
:102088002e4090000080fb008000eb000200400022
:10209800838048004e0190000089be004e009000e9
:1020a8001000be004809dd00c801de008301710090
:1020b8004801dd003e4090000080fb008000eb00fe
:1020c80002004000838048004e0190000089be0055
:1020d8003e00900011c0b300014878000080fa006b
:1020e800000006000400fa0020479800ae40900067
:1020f800014f780061852000914078001e417800ea
:1021080065404100014178007184200095fc07007a
:102118004fc8bf00e14f500003003a0056c8bf0047
:102128000064a00056e8b70061852000914078005f
:102138001e4178006440410076fc07009042800010
:10214800a142800064842000144278000001be008f
:10215800844078001e40780007ff07000080fa00de
:10216800000006000400fa0020479800ae409000e6
:10217800014f780022852000618420001e407800ed
:102188007eff07001e40e9002bfc0700104798005f
:102198001e4178006440410027fc070056e8b7005c
:1021a8001e4090000080fb00680060000000e00016
:1021b8000300320010c0b3004fe8b7000100370039
:1021c8004f68ef0056c8bf006f40600056e8b70080
:1021d80061852000914078001e41780065404100eb
:1021e800014178007184200027fc07000080fa0074
:1021f800000006000800fa003007980000c3b3008a
:102208003047980000c4b3004047980000c5b300a9
:102218005047980020c0b300104798003e00900037
:102228008040eb00014878000040eb00004f780048
:10223800150037001e80fb0000004700304090006a
:10224800fdfb0700204798002e4090000080fb000f
:10225800680060000000e0000a003a001e80fb00f1
:1022680000004700304090008040e8003e009000a9
:10227800014878000040eb00104798001e4090008d
:10228800050037001e4fe8001e407800e24f50005e
:10229800e8ff36001e4090000080fa0000000600ab
:1022a8000600fa00204798003147980042479800f6
:1022b80088fb07004e419000be4090002e409000e1
:1022c80065fe0700004f78001e4078000004e0001b
:1022d80002003a000040eb000100370010c0b300d4
:1022e8000080fa00000006000800fa002047980065
:1022f80022079800330798000040eb001047980029
:102308000040eb00004f780000c8b30067fc0700ee
:10231800104798001e4090000004e00002003200c0
:102328001e409000240037002e009000be00900050
:10233800e00f5000e08f580002003d0010c0b300cd
:10234800004f78002e4090000004e00006003a009c
:102358002e019000be0190009e40780000c2b3009c
:10236800c2fe07000b0037002e409000e14f5000de
:1023780006003a002e019000be0190009e407800b1
:1023880040c2b300b9fe07000200370010c0b30016
:102398001047980051c8bf0044fc07001047980038
:1023a8001e4090000004e000020032001e40900031
:1023b800010037001e4090000080fa00000006006f
:1023c8000800fa0020479800220798003307980071
:1023d8000040eb00104798000040eb00004f7800e9
:1023e80000c8b30031fc0700104798001e40900059
:1023f8000004e000020032001e4090004800370050
:102408002e009000be009000e00f5000e08f5800b2
:1024180002003d0010c0b300004f78002e4090002d
:102428000080fb00e20f50001a003200e20f50005b
:1024380005003c000000e0000a003200e10f5000f7
:102448000e0032002b003700e40f50001d00320050
:10245800e40f500015003500e50f50001f00320052
:10246800240037002e019000be0190009e407800a5
:102478000040eb007dfe0700200037002e01900091
:10248800be0190009e40780040c0b30077fe070070
:102498001a0037002e019000be0190009e4078007f
:1024a80080c0b30071fe0700140037002e019000b1
:1024b800be0190009e40780000c1b3006bfe07008b
:1024c8000e0037002e019000be0190009e4078005b
:1024d80040c1b30065fe0700080037002e019000d8
:1024e800be0190009e40780080c1b3005ffe0700e7
:1024f8000200370010c0b3001047980051c8bf0051
:10250800eafb0700104798001e4090000004e00016
:10251800020032001e409000010037001e4090006b
:102528000080fa00000006000c00fa00100798006e
:10253800210798006247980073479800044f980055
:10254800550798000000eb00000f78001e0190006e
:10255800ae01900092428800a3428800ee409000ad
:10256800f384200081497800fe41900062842000b5
:10257800034978000e499000618520008248780060
:102588000000eb00000f7800080037001e007800fc
:10259800de009000008040009040780070842000a9
:1025a8001e004000014878001e0fe8001e00780059
:1025b800e70f5000f5ff34000040eb000080fa0000
:1025c800000006000200fa005228ef005428ef002d
:1025d8005668ef004668ef004f68ef005068ef005c
:1025e8000000eb00000f7800050037007084200021
:1025f8001e0040008040eb00014878001e0fe800f4
:102608001e007800e70f5000f8ff34000040eb0090
:102618000080fa00000006000600fa000000eb0047
:10262800000f780064004700f2fe0700204798007a
:102638001e0fe8002e409000e24f500004003a00c0
:10264800100320009e007800808f5000f5ff3600b0
:10265800200320009e007800808f500002003a007e
:1026680060c0b3001f0037000000eb00000f7800c7
:102678004e4090009bfe07004e4090000040e9004d
:1026880082c0b30081c0b30057fb07001e0fe800eb
:102698004e4090000040e900e7fa070030479800f4
:1026a8003e40900068406000304798003e409000ef
:1026b8000004e00004003200100320009e007800af
:1026c800808f5000f1ff3600200320009e00780024
:1026d800808f500002003a0070c0b300010037003c
:1026e8000040eb000080fa00000006000c00fa0031
:1026f8002007980031079800024f98005307980068
:102708000040eb00004f78000040eb0010479800b5
:102718002e009000be009000e00f5000e08f58009f
:1027280002003d0010c0b300004f78002e01900059
:10273800be01900000002000010024000202780081
:10274800030178008001780001007800030262002c
:10275800000061008000eb00c000dd0000002000e8
:102768000001be006120b800000171008181710084
:10277800e00f5100e08f59000200320010c0b30092
:1027880010479800de0290000e4a90009e417800a3
:102798001e4190002e009000be00900062ff0700ce
:1027a8009dff0700204798002e4090000080fa0007
:1027b800000006000200fa0023fb070010479800fb
:1027c8001e4090000080fb0061006000004078001f
:1027d8000004e0000900320010c6b30061fe0700e3
:1027e8000041eb0011c0b300c0c2b300fefa0700fd
:1027f8000040eb00004f7800100037001e409000aa
:102808000080fb00620060000000e0000900320068
:1028180010c7b30053fe07000041eb0021c0b3000e
:10282800c0c2b300f0fa07000040eb00004f780088
:102838000200370040c0b300004f78001e40780007
:102848000080fa00000006000800fa00100798004f
:102858002107980032079800d6ff0700e44f500080
:1028680002003a0040c0b3002900370046c8bf0044
:102878000004e0000500320090428000a142800080
:1028880001f0a00090428800a14288004fc8bf0014
:102898000004e0000500320090428000a142800060
:1028a80001e0a00090428800a14288009042800088
:1028b800a14280001e0190000089be0061852000b1
:1028c800914078002e009000014878000000eb004d
:1028d800000f78000a003700708420001e004000b6
:1028e80010407800804078003e0090000148780051
:1028f8003e0090000000e800300798001e0fe80036
:102908001e007800e70f5000f3ff34000040eb0092
:102918000080fa00000006000200fa00cafa070068
:10292800004f78001e80fb00630060000000e0009c
:102938000200320030c0b3000100370040c0b300cd
:102948000080fa00000006000200fa00d0c2b300be
:1029580039fa0700004f78009e80fb00800f2000a6
:10296800008060000000e0000200320050c0b300a8
:10297800010037000040eb000080fa00000006006c
:102988000000fa00d0c2b3002bfa07000080fa005a
:10299800000006000000fa00d0c1b30026fa0700c4
:1029a8000080fa00000006000000fa00c0c1b30071
:1029b80021fa07000080fa00000006000000fa0073
:1029c80082c0b30081c0b300f0c0b30086fa07002c
:1029d800f0c0b30018fa07000080fb006800600030
:1029e8000000e00002003a0000c0eb0001003700e0
:1029f8000040eb000080fa00000006000000fa002a
:102a08000041eb0081c0b300f0c0b30076fa0700c4
:102a1800f0c0b30008fa07000080fb0068006000ff
:102a28000000e0000200320000c0eb0001003700a7
:102a38000040eb000080fa00000006000000fa00e9
:102a480002c1b30001c1b300f0c0b30066fa0700c9
:102a5800f0c0b300f8f907000080fb0070006000c8
:102a68000000e00002003a0000c0eb00010037005f
:102a78000040eb000080fa00000006000200fa00a7
:102a8800004f78009e407800400020000008dd00dc
:102a98000041780001c3b300c0c0b30052fa070078
:102aa8000040eb000080fa00000006000200fa0077
:102ab800d0c0b300e0f9070081c3b300014f600044
:102ac8001e80fb004300de00004078000080fa0012
:102ad800000006002400fa0000902000d103200026
:102ae8003b060700b905070071f907004e0107000a
:102af800ae050700ef020700800107001e28ef005f
:102b08006000b80060079800710798000040eb006b
:102b1800204f98006000b800000f9800110f98002f
:102b28006000b800200f9800310f98000000eb00fb
:102b3800000f78000000eb0010079800803e20008e
:102b4800200798000040eb00005f98000040eb0071
:102b5800004f980000c0eb00104f9800fa004700a3
:102b6800020009008018eb006000b8000017980008
:102b7800111798000300370000000000010037001b
:102b8800000000004001070091010700204f980055
:102b98008071280010407800ae48900080cf500027
:102ba800120032009071280010407800ae48900062
:102bb80080cf50000d003200460107000004e000fd
:102bc8000a003200f80147006c014700f000470096
:102bd8007400470003027800820178000101780040
:102be800800078002e489000aa0107008071280014
:102bf80010407800ae48900080cf500005003200a9
:102c08009071280010407800ae48900080cf5000a6
:102c180005003a002f0107000004e000020032001e
:102c28002e489000af0207001e0090009e0078001a
:102c3800808f500003003d000e589000e44f500074
:102c4800030032000e589000e24f500002003a0094
:102c58001e017800220798001e0090009e00780050
:102c6800808f5000030035000e589000e44f50004c
:102c7800030032000e589000e34f500002003a0063
:102c88009e009000210798000e589000e14f5000d8
:102c980002003a00803e2000200798002e00900095
:102ca8000000e00004003d0010c0b3009a020700d5
:102cb80010c0b300a2020700ae009000400620003a
:102cc800808f5000040034000040eb00920207009f
:102cd8000040eb009a020700f1408000d007200076
:102ce800808f50000d003a002e0090000000e00098
:102cf8000a003500ae00900020032000808f5000ad
:102d080006003c0079004700970207001e58900013
:102d1800810207001e58900089020700f1408000d8
:102d2800a00f2000808f500020003a002e00900055
:102d38000000e00004003500ae00900020032000f1
:102d4800808f500008003400ae009000200320005f
:102d5800808f50000a003400ae009000400620002a
:102d6800808f500006003c00790047007e02070073
:102d78001e589000680207001e5890007002070055
:102d88000040eb00004f98001e4890000040e8000b
:102d9800104f98001e489000e24f500002003a0081
:102da8000040eb00104f98001e28ef000e489000de
:102db8000004e00070ff3a001e489000e14f500008
:102dc8006fff3a00d0c0b300210507006c00470030
:102dd800d8000700010220008e8040006c004700e8
:102de800da0307008e0890002e089000808f5000ac
:102df80010003200ee0090002e0890000080500075
:102e0800000f78008e0890002e0890000080500077
:102e18004106200000017800110009008280d800d6
:102e2800800078001e0078000088b9000000780053
:102e3800000f78009e0890003e089000808f500098
:102e480010003200fe0090003e0890000080500004
:102e5800100798009e0890003e08900000805000df
:102e68004106200000017800110009008280d80086
:102e7800800078001e0090000088b90000007800eb
:102e8800100798001e0078000000e00003003d00d5
:102e98000040eb006047980009003700400620001a
:102ea8009e007800808f50000300340040c6b300b5
:102eb80060479800020037001e00780060479800bd
:102ec8001e0090000000e00003003d000040eb0001
:102ed80070479800090037009e00900040062000c7
:102ee800808f50000300340040c6b300704798003c
:102ef800020037001e009000704798000e5890009e
:102f0800e24f5000030032000e589000e44f50008a
:102f18001a003a00e0712800c00407006e409000d3
:102f28000000fb00fa004700290207007a0047006a
:102f3800ba04070050732800b804070080732800fb
:102f4800b60407002e089000fa0047002002070088
:102f58007a004700b104070070762800af04070024
:102f68000e089000fa004700190207007a0047008f
:102f7800aa040700d0c0b300b50407000e5890009b
:102f8800e34f5000030032000e589000e44f500009
:102f98001a003a00f0772800a00407007e4090004d
:102fa8000000fb00fa004700090207007a0047000a
:102fb8009a040700507328009804070080732800bb
:102fc800960407003e089000fa0047000002070038
:102fd8007a00470091040700707628008f040700e4
:102fe8001e089000fa004700f90107007a00470020
:102ff8008a040700d0c0b30095040700d0c0b3000e
:1030080093040700000220000e00400080017800b1
:1030180042c0b3006000b800b4fd070010c0b300a0
:10302800004f9800d7fe37000000fa0012c0b30026
:10303800d1c0b30030c0b30099fc07000004e00021
:1030480009003a000040eb000ff90700d0c0b300b8
:103058007f0407006079280070040700d0c0b3001f
:103068007b04070006003700d0c0b30078040700cf
:10307800007a280069040700d0c0b3007404070070
:103088000080fa00000006000000fa004dfd07006d
:10309800a116800000102000008060000000e00001
:1030a8000a003a009282200081822000408220009b
:1030b800e5fd0700e07a280058040700d0c0b300f7
:1030c8006304070010c0b30022e8b7000080fa00cc
:1030d800000006000000fa0022c8bf000004e0005b
:1030e800030032002268ef0010c0b300010037006f
:1030f8000040eb000080fa00000006000000fa0023
:103108000a21ef0000712200700888001221a9002e
:10311800b10480000000270001007000b00488009e
:1031280084e0a9008ce0a80013e1a8000080fa0060
:10313800000006000800fa00881f78003007980091
:1031480002000900001feb006e00b1005e030700db
:10315800be009000800878003e0090000084e800df
:10316800bf030700000c7800007c28002b04070030
:103178003e009000100078008e007800940107004f
:103188000e00780025040700507d2800230407005e
:10319800907d2800210407003e0090000080e80090
:1031a800100078008e007800890107000e00780072
:1031b8001a040700507d280018040700d0c0b30087
:1031c800230407004f0478000080fa00000006007e
:1031d8000000fa0029c8bf00f04f50000c003a0068
:1031e8002ac8bf00e14f500003003a00a071280030
:1031f80010407800250037002ac8bf00e24f500071
:1032080003003a00c0712800104078001f00370002
:1032180029c8bf00f14f50000c003a002ac8bf006f
:10322800e14f500003003a00b071280010407800c8
:10323800160037002ac8bf00e24f500003003a00ca
:10324800d071280010407800100037002ac8bf004d
:103258000004e0000c003a0029c8bf00e14f50000c
:1032680003003a00807128001040780007003700fa
:1032780029c8bf00e24f500003003a0090712800af
:1032880010407800010037000040eb000080fa0091
:10329800000006001600fa00404f980071079800d9
:1032a800020f9800130f9800240f9800e07e280062
:1032b80020079800407f280030079800b07f28003a
:1032c800400798001080280050079800a071280037
:1032d80010407800ce48900080cf50000b003a0094
:1032e8001e089000900078007e0090000108780089
:1032f8000040eb00004f78000040eb0010479800ba
:103308007e0090009000780011079800c071280096
:1033180010407800ce48900080cf50000e003a0050
:103328007e0090000080e8009e0890008180e80000
:1033380091007800010878000040eb00004f780009
:1033480010c0b300104798007e0090000080e8008d
:103358009000780011079800b0712800104078009c
:10336800ce48900080cf50000b003a001e08900015
:10337800900078000e0890000108780010c0b30093
:10338800004f78000040eb00104798000e089000ae
:103398009000780011079800d0712800104078003c
:1033a800ce48900080cf50000e003a000e089000e2
:1033b8000080e8009e0890008180e8009100780075
:1033c8000108780010c0b300004f780010c0b300a7
:1033d800104798000e0890000080e80090007800e0
:1033e8001107980030c0b3004a0207001e80fb0096
:1033f80000004000e4004700008040001000780012
:103408008603070080802800840307001e40900080
:103418000080fb0000004000e800470000804000fa
:10342800100078007d030700208128007b03070037
:103438001e009000004078009803070030c0b300d9
:10344800340207007e009000900078000e0890007b
:1034580010007800808f5000040039000e0890009a
:10346800100078000000e0000d003a007e00900097
:103478000080e800900078000e0890000080e800c6
:1034880010007800808f5000340039000e0890003a
:103498000080e800100078000000e0002f003200f3
:1034a80030c0b3001b020700008228005b0307003e
:1034b800d0c0b300660307005084280057030700f4
:1034c80030c0b300130207007e009000900078001f
:1034d8000e08900010007800808f50000a00390014
:1034e8000e089000100078000000e000060032008e
:1034f8007e0090008000eb00010878000e08900024
:103508008000eb00010878007e0090000080e80051
:10351800900078000e0890000080e8001000780005
:10352800808f50000d0039000e0890000080e800e0
:10353800100078000000e000080032007e009000d3
:103548000080e8008000eb00010878000e08900079
:103558000080e8008000eb00010878000e08900069
:10356800100078000000e000040032007e009000a7
:10357800100078000000e0000d003a000e089000ee
:103588000080e800100078000000e000050032002c
:103598007e0090000080e800100078000000e00045
:1035a80003003a002e08900011c0b30001487800cb
:1035b8000e089000100078000000e00011003200b2
:1035c8007e009000100078000000e0000d0032003e
:1035d8000e0890000080e800100078000000e0006d
:1035e800050032007e0090000080e800100078009e
:1035f8000000e00003003a002e08900021c0b3004c
:10360800014878000e089000100078000000e000e3
:10361800040032007e009000100078000000e000f6
:103628000d003a000e0890000080e80010007800b5
:103638000000e000080032007e0090000080e800f2
:10364800100078000000e000030032002e0890000f
:1036580031c0b300014878000e08900010007800cf
:103668000000e000110032007e0090001000780099
:103678000000e0000d0032000e0890000080e80015
:10368800100078000000e000080032007e00900082
:103698000080e800100078000000e000030032001d
:1036a8002e08900041c0b300014878000080fa005d
:1036b800000006000000fa00309c20006008880026
:1036c80080702000000c8800803e2000100c8800cc
:1036d80060ff2d00200c8800d202a9000080fa00ab
:1036e800000006000200fa00004f780080712800f0
:1036f800104078009e40780080cf500003003a00c8
:1037080080702000000c8800010037008021ef0045
:103718000080fa00000006000200fa00004f78005e
:103728001e4078000004e0000200320011e1a80009
:103738000100370011e1a9000080fa00000006002e
:103748000200fa00004f78001e4078000004e000f4
:1037580002003200d722a80001003700d722a900b2
:103768000080fa00000006000200fa00000f78004e
:103778001e007800104078000004e00004003200c9
:103788001e0078008040eb000148780003003700f5
:103798001e00780011c0b300014878000080fa00cc
:1037a800000006000200fa00004f78001e40780072
:1037b800e94f500003003e0001c3b3001ec04000a3
:1037c800010037000040eb000080fa00000006000e
:1037d8001200fa00881f780070079800010f9800ff
:1037e8000e08900001c3b30001487800fe00900065
:1037f800010f78001e007800e90f500013003e000a
:103808000e0890000000e80001c3b30001487800ea
:103818000e0890000080e80001c3b300014878005a
:103828000e0890006300400001c3b300014878000f
:103838000e089000640440001e00780000407800e4
:10384800d8ff0700004c78002f0137001e007800d1
:10385800e90f500031003600300620009e00780045
:10386800808f50002d003e000e0890000000e800f8
:1038780001c3b300014878000e0890000080e800fa
:1038880001c3b300014878001e017800d0cc2c0099
:103898000010b8004308de006a00b9000000780094
:1038a800000051001e0010008000eb001007980077
:1038b800210798001e009000ae009000a200200092
:1038c80003002000fdf40700100798002107980066
:1038d8000e089000630440001e009000004078002d
:1038e800b0ff0700004c78000e0890006404400008
:1038f8001e017800d0cc2c000010b8004308de0070
:103908006a00b9000000780000005100004078000b
:10391800a4ff0700004c7800fb00370030062000a9
:103928009e007800808f500060003600703e2000b6
:103938009e007800808f50005c003e000e089000ca
:103948000000e80001c3b300014878009e00780039
:103958004006200000017800110009008280d8008c
:103968008000fd001e0010008000eb00300798006a
:10397800410798003e009000ce00900042062000cb
:1039880003002000cdf40700300798004107980095
:103998000e0890000084e8003e0090000040780087
:1039a80080ff0700004c7800ce0090004006200001
:1039b8000088b900000178003e0090006000b9005e
:1039c8000000780000014100be0090004006200081
:1039d8000008b80001014100820078003007980013
:1039e8004107980030079800410798001e007800aa
:1039f8006101b8003e009000ce0090000000510028
:103a08008180590010079800210798001e0178004e
:103a1800d0cc2c000010b8004308de006a00b900c2
:103a280000007800000051008000eb001e019000ab
:103a3800ae019000000051008180590010079800e5
:103a4800210798001e009000ae009000a200200000
:103a58000300200099f40700100798002107980038
:103a68000e089000630440001e009000004078009b
:103a78004cff0700004c78000e08900064044000da
:103a88001e017800d0cc2c000010b8004308de00de
:103a98006a00b9000000780000005100004078007a
:103aa80040ff0700004c780097003700703e200068
:103ab8009e007800808f500093003600f07022003e
:103ac8009e007800808f50008f003e009e00780096
:103ad800803e200000017800110009008280d80093
:103ae8008000fd001e0010008000eb0050079800c9
:103af800610798005e009000ee009000823e200072
:103b0800030020006df40700500798006107980033
:103b18000e0890000004e8005e0090000040780065
:103b280020ff0700004c7800ee009000803e200047
:103b38000088b900000178005e0090006000b900bc
:103b48000000780000014100de009000803e200067
:103b58000008b80001014100820078005007980071
:103b68006107980050079800610798001e007800c8
:103b78006101b8005e009000ee0090000000510066
:103b88008180590030079800410798009e0078000e
:103b98004006200000017800110009008280d8004a
:103ba8008000fd008000eb003e019000ce019000f7
:103bb80000005100818059003007980041079800a3
:103bc8003e009000ce009000420620000300200036
:103bd8003af4070030079800410798000e08900053
:103be8000084e8003e00900000407800edfe0700e9
:103bf800004c7800ce009000400620000088b900f4
:103c0800000178003e0090006000b90000007800d4
:103c180000014100be009000400620000008b800e6
:103c280001014100820078003007980041079800a0
:103c380030079800410798001e0078006101b8001d
:103c48005e009000ee009000000151008181590053
:103c58003e009000ce009000000051008180590085
:103c680010079800210798001e017800d0cc2c007e
:103c78000010b8004308de006a00b90000007800b0
:103c8800000051008000eb001e019000ae01900082
:103c98000000510081805900100798002107980002
:103ca8001e009000ae009000a2002000030020003b
:103cb80002f4070010079800210798000e089000ea
:103cc800630440001e00900000407800b5fe070025
:103cd800004c78000e089000640440001e01780033
:103ce800d0cc2c000010b8004308de006a00b900f0
:103cf800000078000000510000407800a9fe07008d
:103d0800004c7800000000004f0478000080fa00a2
:103d1800000006000400fa00204798000040eb006d
:103d2800004f780003003700d0c0b30048010700f7
:103d38001e4fe8002e4090009e40780080cf500033
:103d4800f9ff39000080fa00000006000a00fa00b6
:103d58003007980041079800e10047008285280055
:103d680003000900b25878000040eb00004f7800cb
:103d78003b0037001e80fb0000004000be009000a2
:103d88000080400090007800f00f2000808f5000e5
:103d98001a0036001e80fb000000400000004700ab
:103da800104090000080fb00ce0090000080400092
:103db80080c0eb00014878001e80fb000000400036
:103dc8000000e80000004700104090000080fb0061
:103dd800ce009000808040001e80fb000000400064
:103de8003e0190000000410010007800004078007b
:103df8000040e80080487800180037001e80fb006b
:103e08000000400000004700104090000080fb00c8
:103e1800ce009000808040001e80fb000000400023
:103e28003e0190000000410010007800004078003a
:103e3800804878001e80fb00000040000000e80079
:103e480000004700104090000080fb00ce0090006a
:103e5800008040008040eb00014878001e4fe800d9
:103e68001e407800e14f5000c2ff36000080fa0083
:103e7800000006000000fa00a822a800a842a80036
:103e8800c622a900c642a8000080fa000000060069
:103e98000000fa000021ef000221ef000421a90030
:103ea8008460a9008c60a800a1048000f0ff2800ad
:103eb800808060000000230001007000a0048800da
:103ec8000080fa00000006000400fa00889fbe0087
:103ed8000000eb00000f78000000eb0010079800ce
:103ee8000021ef004006200010088800ca22a80020
:103ef80005e1a8000000000032c8bf000004e0008f
:103f0800fdff3200000000004016800064006000e1
:103f18000000e000fcff3a0005e1a900010880006c
:103f280011079800408320003002be002003be0025
:103f380030002000010020006011b8000020e100de
:103f480001a8e10002b0e10003b8e1000200360078
:103f580000192000000f7800408320003002be00c6
:103f68002003be0030002000010020006011b800ce
:103f78000020e10001a8e10002b0e10003b8e1007f
:103f88001a003e001e0090008000eb00c2f20700fd
:103f9800d2cc2c00c3dc230014f307000004be00bd
:103fa800408320005001be004000be00047721007d
:103fb800050020006033b80050f3070087f20700bf
:103fc8000001be000800be00caf1070002002d0073
:103fd8004368240005f307000240220043972400a9
:103fe80021f2070062f20700000f78003268ef0044
:103ff800448320006000b8006011b800009abe0039
:104008000292be001e0078004f04be000080fa0035
:10401800000006000000fa00d222a900d242a8003f
:104028000080fa00000006000000fa001821ef00e6
:104038001c21ef002021a90086c0a9008ec0a8007d
:10404800f1048000f08f2f00808060000030200095
:1040580001007000f00488000080fa0000000600eb
:104068000400fa00889fbe000000eb00000f7800f3
:104078000000eb00100798001821ef004006200010
:10408800e0088800d622a80021e1a800000000006e
:104098003cc8bf000004e000fdff32000000000043
:1040a800a0168000640060000000e000fcff3a00f9
:1040b80021e1a900c108800011079800e0832000d1
:1040c8003002be002003be003000200001002000a6
:1040d8006011b8000020e10001a8e10002b0e10091
:1040e80003b8e1000200360000192000000f780034
:1040f800e08320003002be002003be003000200014
:10410800010020006011b8000020e10001a8e100d2
:1041180002b0e10003b8e1001a003e001e00900062
:104128008000eb005cf20700d2cc2c00c3dc23003b
:10413800aef207000004be00e08320005001be007c
:104148004000be0004772100050020006033b8005d
:10415800eaf2070021f207000001be000800be00d5
:1041680064f1070002002d00436824009ff2070055
:104178000240220043972400bbf10700fcf107002e
:10418800000f78003c68ef00e48320006000b8006e
:104198006011b800009abe000292be001e007800ae
:1041a8004f04be000080fa00000006000000fa007c
:1041b80030ff070036ff070096ff07009aff070049
:1041c800d322a9000080fa00000006000000fa00cf
:1041d800c0002000a01088000d42a8008d20a80073
:1041e80071108000c0ff2f000080600070108800f0
:1041f8000de2a8000f42a8000080fa0000000600a7
:104208000000fa0001c8bf0002e8b7000168ef002b
:1042180002c8bf000080fa00000006000000fa0093
:10422800881f7800000478000300370018407800e1
:10423800070007000804e800184078000004e000c0
:10424800faff3a004f0478000080fa0000000600e8
:104258000200fa00004f7800000000007110800092
:1042680000102000008060000000e000fbff32002a
:104278006010800066006000e60f500003003a00fe
:104288001e80fb0080108800020037001e80fb00a3
:10429800801088000080fa00000006000400fa0080
:1042a800204798002e4090008080fb00803e200030
:1042b80000017800110009008200d800004f780042
:1042c80001c3b3001ec04000e1ff07001e40780094
:1042d8007800b9000000780000407800ae409000f7
:1042e80000c04000204798002e4090000080fb004e
:1042f800c200de00b04721000008b8000100d1006c
:10430800004f780002c3b3001e404100d0ff0700f1
:104318009e407800c00920000088b900000078009d
:1043280000407800ae40900000c040002047980050
:104338002e4090008080fb00d0cc2c000008b800f4
:104348004308de00004f780001c3b3001ec04000e0
:10435800bfff07009e407800600f20000088b9006a
:104368000000780000407800ae40900000c0400097
:10437800204798002e4090000043b000b4ff07008b
:084388000080fa0000000600ad
:020000040000fa
:104390001c080000160000000000000000080000db
:1043a0001c00000000000000460800000c00000097
:1043b000000000005208000006000000020000009b
:1043c0000500000000080200320800001400000090
:0843d0000000000000000000e5
:020000040000fa
:1043d800f03fb1000180b10006003500ee0309008e
:1043e80000000000403fb1000180b100fbff3d002c
:1043f8001000b000203fb000020035000080090026
:084408000000000000000600a6
:020000040000fa
:0200000401f009
:04000000f1bf00004c
:020000040000fa
:0200000401f009
:04000400ff7f00007a
:00000001FF
